:100000000C945F070C94A6070C94A6070C94A60703
:100010000C94A6070C94A6070C94A6070C94A607AC
:100020000C94A6070C94A6070C94BB1A0C944018C9
:100030000C94361A0C94A6070C94A6070C94A607E9
:100040000C94A6070C94A6070C94A6070C94A6077C
:100050000C94A6070C94E9190C94A6070C94A60717
:100060000C94A6070C94C22B0C949A2B0C94A60704
:100070000C94A6070C94A6070C94A6070C94A6074C
:100080000C94A6070C94A6070C94A6070C94A6073C
:100090000C94A6070C94A6070C94A6070C94A6072C
:1000A0000C94A6070C94A6070C94A607D713D71395
:1000B000091409147B142316231623169714751597
:1000C00086158615B423DB237325DB2373252324B0
:1000D0004624732535254825152A152A282A282A35
:1000E0001E2A282A282A282A152A152A232A282AB5
:1000F000282A232A00DA0281FFD9F1DB20A4A62EC8
:10010000AF00A0C000A1C800AED580A81FD300409A
:100110008D14200000047F3F1F6432146432147871
:100120003C1E1E140A050000000000000000000034
:1001300000000000000000000000000000000000BF
:1001400000000000000000000000000000000000AF
:100150000080000000008480808080040000008017
:1001600004000000800400000080040000008004FF
:1001700000000080040000008004000000800400F3
:1001800000008004000000800400000080040000E3
:10019000008004000000800404040484848484003B
:1001A00000000084000000000000000000000000CB
:1001B000000000000000000000000000000000003F
:1001C000000000000000000000000000000000002F
:1001D00000100000000010101010101000000000AF
:1001E00010000000001000000000100000000010CF
:1001F00000000000100000000010000000001000CF
:1002000000000010000000001000000000100000BE
:10021000000010000000001010101010101010004E
:1002200000000010000000000000000000000000BE
:1002300000000000000000000000000000000000BE
:1002400000000000000000000000000000000000AE
:10025000000200000000020202020202020200008C
:100260000000020000000002000000000200000088
:100270000002000000000200000000020000000078
:100280000200000000020000000002000000000266
:100290000000000002020202020200000000020050
:1002A000000000020000000000000000000000004C
:1002B000000000000000000000000000000000003E
:1002C000000000000000000000000000000000002E
:1002D000000000000000000000000000000000001E
:1002E000000000000000000000000000000000000E
:1002F00000000000000000000000000000000000FE
:1003000000000000000000000000000000000000ED
:1003100000000000000000000000000000000000DD
:1003200000000000000046554E43544E004E554D0F
:10033000504144004152524F575300515745525477
:1003400059000000000000804020A02040408000B4
:10035000000080402050880400004060504E5164EE
:100360004A5154494162544946414030090402010E
:1003700000000000000000804040404040808000BD
:10038000000004986080000000006050544A5164EE
:100390004A51554941625449464121100A08050213
:1003A00000000000000000804040404080801010AD
:1003B00010204040C08080000000605854624954C2
:1003C0005251554962524D4546222111100A0805E5
:1003D000020000AE00AF000029001E001F00200038
:1003E00021002200230024002500260027002D00E4
:1003F0002E002A004C00A8002B0014001A00080050
:10040000150017001C0018000C00120013002F002C
:1004100030003100090139000251040016000700C4
:1004200009000A000B000D000E000F00330034001D
:1004300000002800B2000253E1001D001B0006006E
:100440001900050011001000360037003800E500E3
:1004500000005200B5000351E000E300E20000009C
:1004600000002C000000000001510601190150009D
:10047000000051004F0000003500010001000100A4
:100480000100010001000100010001000100010064
:10049000010001000100C35C010001000100010036
:1004A0000100010001004B005200010001000100A9
:1004B00001000100010001001D01E000E100010058
:1004C000010001004A00500051004F004D000100A2
:1004D0000000010001000100010001000100010015
:1004E0000100010001004E0001000100380101007F
:1004F00000000100010001000100010001000000F6
:10050000000001000000000001001B0101000100CB
:1005100000000100010000003500010001000100A1
:1005200001000100010001000100010001000100C3
:10053000010001000100C35C010001000100010095
:1005400001000100550024002500260001000100E3
:100550000100010001000100010001000100010093
:1005600001000100570021002200230001000100CA
:100570000000010001000100010001000100010074
:100580000100010056001E001F00200001000100B4
:100590000000010001000100010001000100000055
:1005A00000002700000000005400010001000100CD
:1005B000000001000100000001003A003B003C0087
:1005C0003D003E003F004000410042004300440027
:1005D000450001000100C35C0100010001000100B1
:1005E0000100010001000100010001000100010003
:1005F00001000100010001000100010001000100F3
:1006000001000100010001000100010001000100E2
:100610000000010001009A0001000100010001003A
:1006200001000100010001000100010001000100C2
:1006300000000100010001000100010001000000B4
:1006400000000100000000000100010001000100A5
:1006500000000100010005010980A10185031901C5
:100660002AB700150126B700950175108100C00555
:100670000C0901A101850419012AA002150126A077
:1006800002950175108100C005010906A1018506CA
:10069000050719E029E71500250195087501810274
:1006A0000507190029EF1500250195F07501810254
:1006B0000508190129059505750191029501750334
:1006C0009101C005010906A101050719E029E715F7
:1006D00000250195087501810295017508810105C4
:1006E00007190029FF150026FF00950675088100EF
:1006F00005081901290595057501910295017503F4
:100700009101C009023B00020100A0FA09040000A7
:100710000103010100092111010001224000070528
:10072000810308000A0904010001030000000921F7
:1007300011010001226D000705820320000A120149
:10074000000200000008616E60600100010200010B
:100750000E034E004900420042004C0045000000DC
:1007600012036E0075006C006C006200690074007A
:10077000730000000403090407087F0807003E5BBC
:100780004F5B3E003E6B4F6B3E001C3E7C3E1C00B0
:10079000183C7E3C18001C577D571C001C5E7F5E79
:1007A0001C0000183C180000FFE7C3E7FF0000181A
:1007B00024180000FFE7DBE7FF0030483A060E0090
:1007C000262979292600407F05050700407F052559
:1007D0003F005A3CE73C5A007F3E1C1C0800081CA6
:1007E0001C3E7F0014227F2214005F5F005F5F00C9
:1007F00006097F017F00006689956A00606060607D
:10080000600094A2FFA2940008047E040800102057
:100810007E20100008082A1C0800081C2A0808006E
:100820001E10101010000C1E0C1E0C0030383E382C
:100830003000060E3E0E0600000000000000000022
:100840005F000000000700070000147F147F140001
:10085000242A7F2A12002313086462003649562096
:100860005000000807030000001C22410000004166
:10087000221C00002A1C7F1C2A0008083E080800D1
:100880000080703000000808080808000000606060
:1008900000002010080402003E5149453E0000427D
:1008A0007F4000007249494946002141494D3300CB
:1008B0001814127F10002745454539003C4A494924
:1008C000310041211109070036494949360046499E
:1008D00049291E0000001400000000403400000000
:1008E00000081422410014141414140000412214AE
:1008F00008000201590906003E415D594E007C1274
:1009000011127C007F49494936003E414141220095
:100910007F4141413E007F49494941007F09090922
:1009200001003E41415173007F0808087F000041EB
:100930007F4100002040413F01007F081422410018
:100940007F40404040007F021C027F007F0408106F
:100950007F003E4141413E007F09090906003E41BA
:1009600051215E007F091929460026494949320074
:1009700003017F0103003F4040403F001F20402013
:100980001F003F4038403F00631408146300030415
:10099000780403006159494D4300007F4141410003
:1009A000020408102000004141417F0004020102BE
:1009B000040040404040400000030708000020546D
:1009C000547840007F284444380038444444280088
:1009D000384444287F0038545454180000087E09D5
:1009E000020018A4A49C78007F0804047800004446
:1009F0007D4000002040403D00007F102844000062
:100A000000417F4000007C04780478007C080404E6
:100A10007800384444443800FC1824241800182472
:100A20002418FC007C080404080048545454240092
:100A300004043F4424003C4040207C001C20402013
:100A40001C003C4030403C004428102844004C909E
:100A500090907C004464544C4400000836410000EF
:100A60000000770000000041360800000201020487
:100A700002003C2623263C0000000000000040400D
:100A800040F0F8F8FF38FFF8F83FF8F8FF38FFF8C3
:100A9000F8F040404000000000000080C0C0C0806E
:100AA0000000C0C08000000080C0C000C0C00000C6
:100AB00080C0C00000000000C0C0C0C0C000C0C0F6
:100AC0000000000000000000000000000000000026
:100AD0000000000000000000000000000000000016
:100AE0000000000000000000000000000000000006
:100AF00000000000000000C0F0F8FC3E1E060100EF
:100B000000007F4141417F007F4141417F000080E3
:100B1000C0E07E5B4F5BFEC00000C000DCD7DEDEC5
:100B2000DED7DC00C0000000000000000000000074
:100B30000000000000000000000000000000494923
:100B400049FFFFFFFFE0DFBFBF00BFBFDFE0FFFFE8
:100B5000FFFF49494900000000001F3F6060E0BFFF
:100B60001F007F7F071E381E077F7F007F7F0E1FBD
:100B70003B716000000000007F7F0C0C0C007E7E4B
:100B8000007F7E0303007F7E03037E7E03037F7E60
:100B9000000F3E703C063C703E0F00327B49493FDF
:100BA0007E007F7E0303001E3F69696F2600000000
:100BB00000000000000000030F1F3F3C7870600041
:100BC00000007F4141417F007F4141417F00307BF8
:100BD0007F7830202030787F3B0003000F7F0F0F9D
:100BE0000F7F0F0003000000000000000000000065
:100BF00000000000000000000000000000000101F3
:100C000001070F0F7F0F7F0F0F7E0F0F7F0F7F0FDB
:100C10000F070101010000000000000000000001BA
:100C200001000000000000000000000000000000C3
:100C300000000000000000000000000000000000B4
:100C400000000000000000000000000000000000A4
:100C50000000000000000000000000000000000094
:100C60000000000000000000000000000000000084
:100C70000000000000000000000000000000000074
:100C80000000000000000000000000000000000064
:100C90000000000000000000000000000000000054
:100CA0000000000000000000000000000000000044
:100CB000000000000000000000010101010101012D
:100CC0000101020202020202020202030303030301
:100CD00003030304040404040404050505050506D0
:100CE000060606060707070707080808080909098E
:100CF000090A0A0A0B0B0B0C0C0C0D0D0D0E0E0E37
:100D00000F0F0F10101111111212131314141515C7
:100D100016161717181819191A1A1B1B1C1D1D1E39
:100D20001E1F20202122222324242526262728298D
:100D3000292A2B2C2D2D2E2F3031323233343536BB
:100D40003738393A3B3C3D3E3F40414243444546BB
:100D50004748494A4C4D4E4F505153545556585997
:100D60005A5B5D5E5F616264656668696B6C6D6F3E
:100D70007072737577787A7B7D7E808283858788B1
:100D80008A8C8E8F91939596989A9C9EA0A2A3A5EB
:100D9000A7A9ABADAFB1B3B5B7BABCBEC0C2C4C6EC
:100DA000C9CBCDCFD1D4D6D8DBDDDFE2E4E7E9EBA8
:100DB000EEF0F3F5F8FAFDFFFFAA7F554022232558
:100DC0002628292A2C2D2F3032333536383A3B3D10
:100DD0003E4042434547494A4C4E5051535557595E
:100DE0005A5C5E6062646668696B6D6F717375777B
:100DF000797B7D7F81838587898A8C8E909294967A
:100E0000989A9C9E9FA1A3A5A7A8AAACAEAFB1B388
:100E1000B4B6B8B9BBBCBEBFC1C2C3C5C6C7C9CAD8
:100E2000CBCCCDCED0D1D2D2D3D4D5D6D7D7D8D99A
:100E3000D9DADADBDBDBDCDCDCDCDCDDDDDDDDDCF8
:100E4000DCDCDCDCDBDBDBDADAD9D9D8D7D7D6D50A
:100E5000D4D3D2D2D1D0CECDCCCBCAC9C7C6C5C3CC
:100E6000C2C1BFBEBCBBB9B8B6B4B3B1AFAEACAA19
:100E7000A8A7A5A3A19F9E9C9A98969492908E8CC9
:100E80008A89878583817F7D7B79777573716F6DA3
:100E90006B6968666462605E5C5A5957555351507D
:100EA0004E4C4A4947454342403E3D3B3A38363531
:100EB0003332302F2D2C2A292826252322001124D5
:100EC0001FBECFEFDAE0DEBFCDBF04B603FE27C002
:100ED0008091F3089091F408A091F508B091F6087C
:100EE0008730904BA740B04BD1F41092F30810928A
:100EF000F4081092F5081092F60814BE84B7877FA4
:100F000084BF0FB6F894A8958091600088618093A3
:100F10006000109260000FBEE0E0F8E3099528E061
:100F2000AAE8B3E001C01D92A33FB207E1F713E0C6
:100F3000A0E0B1E0E4E8FFE502C005900D92AA3818
:100F4000B107D9F70E94A8070C94C02F0C94000099
:100F5000CF93DF93CDB7DEB764970FB6F894DEBFBB
:100F60000FBECDBF84B7877F84BF0FB6F894A89516
:100F700080916000886180936000109260000FBED5
:100F800090E080E80FB6F894809361009093610040
:100F90000FBE85B7806885BF85B7806885BF89EA41
:100FA0009CE190938B0380938A030E9484180E9493
:100FB0002A198091E20084608093E2007894809105
:100FC0005F058823A1F01091E9001F709091EC005B
:100FD000892F817090FD80E8182B1092E900809194
:100FE000E80083FD0E94CC221F701093E90082E08C
:100FF00084BD93E095BD9AEF97BD80936E0026E186
:1010000033E0A2E1B3E061E070E08D91E82FE2957A
:10101000EF70F0E041A18F708B0102C0000F111F33
:101020008A95E2F7C801842B81A32A173B0769F749
:10103000A2E1B3E061E070E08D91E82FE295EF70FE
:10104000F0E092A18F70AB0101C0440F8A95EAF7DE
:10105000842F8095892382A32A173B0769F74BE1E8
:1010600053E0A6E1B3E061E070E08D91E82FE295F6
:10107000EF70F0E021A18F708B0102C0000F111FF3
:101080008A95E2F7C801902F9095922391A392A19F
:10109000892B82A34A175B0741F7ADEDB3E0E3ED7F
:1010A000F3E0119211921D921D922DED33E02E1757
:1010B0003F07B9F780E090E00E94452D893E9E4FA2
:1010C00011F00E94771E82E090E00E94372D8093FD
:1010D000940484E090E00E94372D182F82E290E083
:1010E0000E94372D212F30E0382B3093D0042093ED
:1010F000CF0483E090E00E94372D682F70E080E0FD
:1011000090E00E94F62960E078E582E090E00E949D
:101110001D2B8091D80080618093D80045E34A95CB
:10112000F1F700008091D900817080930D0182E079
:101130008093910480E8809369050E94E92B6DE01B
:1011400070E087E091E00E947722892B09F043C08C
:101150008091910463E070E081FD3AC084E091E009
:101160000E947722892BB9F56DE070E084EF90E062
:101170000E947722892B79F50E941E1ADC01CB018F
:10118000805A9541AF4FBF4F8093BF049093C004E6
:10119000A093C104B093C204ECE6F5E080E092E0D5
:1011A000DF018C011D9201501040E1F7F0937307AD
:1011B000E09372078FEF9FEF90936B0580936A0522
:1011C00081E08093C4048093C3041092920403C00E
:1011D00081E091E0C5CF80918C03811136C080E021
:1011E00090E00E94452D893E9E4F21F00E94771E7F
:1011F0000E942A2688E090E00E943F2D6093D5044B
:101200007093D6048093D7049093D8046E7F71F4C2
:101210000E942A2688E090E00E943F2D6093D5042A
:101220007093D6048093D7049093D8040E94E3254A
:1012300010927B078091D50480FF04C060E0869502
:101240000E94972881E080938C0325982D9A2498FA
:101250002C9A83B185FB882780F91C9B02C092E001
:1012600001C090E0892B8093E90380E091E09093A6
:10127000C8048093C70422242394312C80E090E09A
:10128000E12CE2E1F3E020E030E0A101022E02C017
:10129000440F551F0A94E2F748235923022E02C037
:1012A000559547950A94E2F7442391F04081A42F85
:1012B000A295AF70B0E092966C9192974F708101B9
:1012C00002C0000F111F4A95E2F7A801462B11C07A
:1012D0004081A42FA295AF70B0E092965C91929756
:1012E0004F70B10101C0660F4A95EAF7462F40954D
:1012F000452392964C932F5F3F4F31962430310512
:1013000021F61AE11A95F1F700C001E010E020E0A3
:1013100030E0082E04C0000F111F221F331F0A9453
:10132000D2F7B801980120953095E3EDF3E0B6E1EE
:101330008B2EB3E09B2EF12C8F0140815181D40183
:10134000BD904D01CB2CC294AFE0CA22D12CD60166
:101350009096CC90D12CBB2DBF7002C0D594C79471
:10136000BA95E2F7C0FC04C06A01C62AD72A03C0B6
:101370006A01C222D322D182C0823296D8010D9155
:101380001C914017510711F0FF24F3940DED13E069
:101390000E171F0789F6EF2801968031910509F095
:1013A00070CFEE2049F011E010938F030E942A1AAB
:1013B00090938E0380938D0380918F03882391F106
:1013C00080918D0390918E030E940F1A0A9750F11D
:1013D0008091D3039091D4039093DE038093DD0337
:1013E0008091D5039091D6039093E0038093DF031F
:1013F0008091D7039091D8039093E2038093E10307
:101400008091D9039091DA039093E4038093E303EE
:101410008091DB039091DC039093E6038093E503D6
:1014200010928F0380909B03082C000C9908AA0847
:10143000BB0880910C0190E0ECE9F3E09F012B598F
:101440003340821793075CF04191042E000C550B3A
:10145000660B770B840E951EA61EB71EEFCF8091EC
:10146000970390919803A0919903B0919A032FB795
:10147000F8944090CB045090CC046090CD047090D0
:10148000CE042FBF481A590A6A0A7B0A10910C0130
:1014900025E6421651046104710404F1809196031B
:1014A00090E0019662E370E00E943C2F80939603E7
:1014B000FC01E556FC4F1082113318F481E0810FD6
:1014C00001C081E380930C010E941E1A6093970370
:1014D000709398038093990390939A03A5019401C4
:1014E000B7FE03C020E030E0A901223031054105FC
:1014F000510564F1A0E6BAEE0E94932F4B015C0106
:1015000044E6149F90011124C901330FAA0BBB0BB1
:101510009C01AD01240D351D461D571DA5E0B0E011
:101520000E94932F9B01AC01C501B4010E940C2DB8
:1015300029013A0151EF451651046104710448F044
:1015400050EF452E512C612C712C03C0412C512C95
:1015500032018091920390919303A0919403B091F2
:1015600095032FB7F8948090CB049090CC04A09072
:10157000CD04B090CE042FBF881A990AAA0ABB0ADC
:1015800085E688169104A104B10484F00E941E1A15
:1015900060939203709393038093940390939503C5
:1015A0008091EA03809391034092900310919103FC
:1015B000A0919003B0E0A11BB109A50194010E9484
:1015C0009E2F24E630E040E050E00E94502F120FA2
:1015D0001093EA0380910D0181111AC0EE2009F4E5
:1015E00059C00E941E1A56C00091D20310E00E94FA
:1015F0005D2BF801E353FC4F80838091D20381116E
:101600000CC09091CD03993609F440C01092D203DA
:101610000E94852B8111E8CFE1CF8430B9F580910C
:10162000CD03893699F72091D0033091CF03822FD3
:1016300090E0830F911D3091CE03830F911D875948
:101640009F4F9091D1039813E1CF8091CE03909159
:10165000CF038F3EAFEF9A0788F011E0211101C050
:1016600010E020910D01211103C0612F0E945B1138
:10167000412F69818A810E947910C8CF222319F0F5
:101680000E947A2AC3CF0E94502AC0CF8F5F8093D6
:10169000D203BECFE5E9F4E0ADEDB3E000E010E049
:1016A000602F2D913D9181919191822793270097F1
:1016B00079F170E0CC24C394D12CAC014C215D2194
:1016C000452B09F17F8368872C213D2181E0232B65
:1016D00009F480E089870E942A1A8160782F9B870D
:1016E0008A874F81588569858B850E94C60F000FB8
:1016F000111FF801EB56FB4F80819181C826D92636
:10170000D182C0821AC07F5FCC0CDD1C7031A9F67B
:101710000F5F1F4F0530110519F68FEF8C878D87EE
:101720001E860E942A1A8160782F988B8F874C859D
:101730005D856E8588890E94C60F80917B0788230E
:1017400009F493C080917A07E091D504E695E81BEF
:10175000E0937607823059F4F0E0EE5DFE4FE491BD
:101760000E2F10E089EFC82E86E2D82E59C08630A1
:1017700059F4F0E0E15EFE4FE4910E2F10E0B9EE77
:10178000CB2EB6E2DB2E4CC0893061F4E695F0E05A
:10179000E45EFE4FE4910E2F10E0AAE7CA2EA7E206
:1017A000DA2E3EC08F3061F4E695F0E0E75EFE4F42
:1017B000E4910E2F10E0FDE0CF2EF7E2DF2E30C0D7
:1017C000853159F4F0E0EA5EFE4FE4910E2F10E00F
:1017D000E2EBCE2EE7E1DE2E23C08831A1F083328A
:1017E00049F4E4E1F1E00591149170E0C72E78E14D
:1017F000D72E16C0843271F000ED17E06BE9C62ECB
:1018000065E2D62E0DC008E210E059E2C52E57E180
:10181000D52E06C004EF11E04FEEC42E46E1D42EC3
:1018200080917707882361F0109277070E942A1A27
:101830009093750780937407109279071092780738
:101840000E942A1AE0917407F09175078E1B9F0B76
:101850008F3F9F4750F40E0F1F1F10937507009383
:10186000740784E797E0F60109958091E903E82F72
:10187000EE0FEE0FE093E90383B185FB882780F933
:10188000898B1A8A1C9B03C082E090E002C080E032
:1018900090E009891A89802B912B8E2B8093E90384
:1018A0008F70E82FF0E0E55EFC4F90818091E803B7
:1018B000890F8093E80384300CF440C08091E703E3
:1018C0008F5F8093E7038091EB039091EC03A091ED
:1018D000ED03B091EE030097A105B10511F080FF73
:1018E00007C08AEA0E947A2A8AEA0E94502A23C004
:1018F00080913A05982F927259F08091FF0290E002
:101900000A97181619060CF080E00E949C1B13C061
:10191000982F917119F00E943F280DC0982F987848
:1019200019F00E94572807C0847419F00E946F288C
:1019300002C00E94D228FF24F39401C0F12C8091B0
:10194000E8038D3F0CF03FC08091E7038150809306
:10195000E7038091EB039091EC03A091ED03B0912C
:10196000EE030097A105B10511F080FF07C089EAD9
:101970000E947A2A89EA0E94502A23C080913A055F
:10198000982F927259F08091FF0290E00A968F3F53
:1019900091050CF08FEF0E949C1B13C0982F917142
:1019A00019F00E944B280DC0982F987819F00E94CA
:1019B000632807C0847419F00E94782802C00E942E
:1019C000DB28FF24F3948091E803082E000C990B88
:1019D00064E070E00E943C2F8093E803F1100E94C5
:1019E0001E1A8091C404882309F4BDC260E080E01F
:1019F0000E947A1C8091F4028823D9F160E072E0A1
:101A000086E291E00E94EF1B0EE812E0D8011496E6
:101A1000AD90BC901597A114B10419F0C12CD12C34
:101A200009C00A5F1F4FB2E00E3E1B0779F709E5B8
:101A300010E012C0CA14DB04A4F7F8018081918180
:101A40008B9641E066E170E08C0D9D1D0E94771041
:101A5000FFEFCF1ADF0AEECF41E066E170E0C80188
:101A60000E9477100F5F1F4F0F351105A9F71092D5
:101A7000F4020091EA0310E0C801959587959595C9
:101A80008795081B190B8091F2029091F302801741
:101A9000910734F40091F0021091F1020093EA03EF
:101AA00060E080E00E947A1C8091EB039091EC034F
:101AB000A091ED03B091EE03AD01662777274115A4
:101AC00051056105710521F4AC01BD0180E001C043
:101AD00080E1852E962EA72EBB2481149104A104AB
:101AE000B10419F0885FB501A4014A015B01B4E0BB
:101AF000B694A79497948794BA95D1F781149104DA
:101B0000A104B10419F08C5FB501A4014A015B0185
:101B1000A2E0B694A79497948794AA95D1F78114DC
:101B20009104A104B10419F08E5FB501A40176956A
:101B3000679557954795452B462B472B09F08F5FA7
:101B4000813059F038F0823069F0833071F486E2E8
:101B500093E005C08BE393E002C084E393E00E942E
:101B6000692207C08DE293E0FACF8CE093E00E94F7
:101B700051221C822AE030E0C801B9010E943C2FAA
:101B8000805D8B83CB01B9010E943C2F805D8A83ED
:101B9000C80164E670E00E943C2FCB01B9010E94AD
:101BA0003C2F805D898362E080E00E947A1CCE0138
:101BB00001960E9451228091F0029091F1028017CB
:101BC000910794F41093F1020093F002C801449637
:101BD0009093F3028093F20261E080E00E947A1C0D
:101BE000CE0101960E9451228091EE029091EF0267
:101BF000023311053CF4892BC9F11092EF021092C7
:101C0000EE0214C0083411054CF4019779F121E07B
:101C100030E03093EF022093EE0208C0029731F1DA
:101C200082E090E09093EF028093EE0261E083E027
:101C30000E947A1C8091EE029091EF0220E3289F8F
:101C40006001299FD00C112468E170E0C6018E5B11
:101C50009C4F0E94EF1B62E083E00E947A1C68E1C7
:101C600070E0C601865A9C4F0E94EF1B80916F0462
:101C7000909170040E940F1A893E934008F463C04B
:101C8000B801110F880B990B0E94292E20E030E03B
:101C900048EC52E40E947F2D20E030E040EE50E41A
:101CA0000E94B52E0E94F12D6830710514F067E096
:101CB00070E0EFEEF3E02DE634E0DF01CB014D9173
:101CC0005D91840F951F2A173B07C9F7892B39F4BB
:101CD0000E942A1A9093700480936F0434C082810A
:101CE0009381819391932E173F07C9F770936E04E8
:101CF00060936D0401E010E0F801EE7FE151FC4FCC
:101D0000A080B180EFE1CE2ED12C1A141B044CF42C
:101D100041E0B601C8010E94771041E0A41AB10861
:101D200005C040E0B601C8010E94771051E0C51A15
:101D3000D10888E1C816D10441F70E5F1F4F013862
:101D40001105D1F6C5CF8091C404882309F4E0C001
:101D500020916A0530916B052115310509F4D8C031
:101D6000809192048111D4C0482E512C6101082E1B
:101D700002C0CC0CDD1C0A94E2F7A9014C215D21C4
:101D8000452B11F48F5FF0CF90919104920175E093
:101D9000220F331F7A95E1F790FD12C08295880FCC
:101DA00080768093F702220F232F221F330B319569
:101DB0002093FA02815E8093F8021092FB0212C017
:101DC00055E0369527955A95E1F7220F220F220FFD
:101DD0002093F7021092FA02295F2093F80283E021
:101DE0008093FB0224E630E047E050E065EF72E0CC
:101DF00088E70E94A02C892B09F08AC08091910469
:101E000080FD23C0C20145E0880F991F4A95E1F784
:101E1000AC0144595A4F04E610E020E230E060E49F
:101E200088E70E94C72C892B09F072C00E94C91B49
:101E3000C094D09480916A0590916B05C822D922F4
:101E4000D0926B05C0926A0563C080E2E1E7F4E0DE
:101E5000DF011D928A95E9F735E0440C551C3A954F
:101E6000E1F7E0E3F3E0FC8BEB8B6CE273E0AB8932
:101E7000BC898D91BC8BAB8BFB019191BF01A20101
:101E8000490F511D44595A4F90E08F589B4FFC0108
:101E900027E0A22E9F01281B390B822C01C0880C41
:101EA0002A95EAF78A01912CD801BD908D01B820BE
:101EB0002A2D29192770722E022E000C330BBB2DF0
:101EC00001C0BB0F7A94EAF77B2E31952195310939
:101ED0002770332701C0B6942A95EAF77B28B08093
:101EE0007B287082939428E09212DECFAA943196D8
:101EF0003FEFA312CFCF4B895C894453534009F085
:101F0000B6CF04E610E020E230E041E754E087CFAE
:101F10008091C304882339F10E941E1A0091BF04E6
:101F20001091C0042091C1043091C204DC01CB01A6
:101F3000801B910BA20BB30B8F3F9F4FAF4FBF473F
:101F400090F48091C404882371F08091C3048823A5
:101F500051F062E070E082ED93E00E947722892BDD
:101F600011F41092C304E11001C0F1100E94C91BCA
:101F70000E94AF1A90919304891709F47FC90E94B7
:101F8000AF1A809393040E94701078C91F93CF9367
:101F9000DF93CDB7DEB767970FB6F894DEBF0FBEFD
:101FA000CDBF4B8B5C8B6D8B7E8B8F8B61111092B9
:101FB000340586E09E01235F3F4FD901E82F1D9233
:101FC000EA95E9F795E0FE017396D90101900D922B
:101FD0009A95E1F79C894E895F897B897D879E87E9
:101FE0006F87598B488BF901DE01179601900D928E
:101FF0008A95E1F7CE0107960E94042081113EC028
:1020000086E0FE013796DE01119601900D928A95C9
:10201000E1F7FF81E8856A857B856115710531F0FF
:10202000EF3F31F481E0FF3F19F403C081E001C0CC
:1020300080E080FD23C02091000530E0C9010196B9
:10204000877099274091310550E08417950779F101
:10205000F983EA837D836C8396E0929FD001939FFE
:10206000B00D1124AF5FBA4FFE01319601900D9271
:102070009A95E1F7809300050E946F1F16E080910A
:10208000310590910005891709F1189FC0011124AD
:102090008F5F9A4F0E9404208823C1F08091310500
:1020A00090E001968770992780933105E8CF1092D0
:1020B0003A050E942C2A1092000510923105EAEF91
:1020C000F4E086E0DF011D928A95E9F767960FB686
:1020D000F894DEBF0FBECDBFDF91CF911F91089561
:1020E00081FF02C0809801C0809A889808950C945E
:1020F0003C1C2F923F924F925F927F928F929F92C1
:10210000AF92BF92CF92DF92EF92FF920F931F9305
:10211000CF93DF93782ED62FC42F80E6789EF001E0
:10212000112486E0689FE00DF11D1124E25FFE4F4F
:10213000A480B58084E0A80EB11CC080D18089E263
:10214000C80ED11CE280F38015012C0C3D1C81E0EF
:10215000281A3108270184E0480E511C80912B0376
:1021600000E010E081113EC082E078123BC06E308A
:10217000C9F5780185E0E80EF11C4C2FB7018AE71C
:1021800090E00E947710053011053CF44C2FB70108
:1021900083E790E00E94771003C00530110549F4F1
:1021A0004C2FB801675F7F4F84E790E00E94771063
:1021B00003C00630110581F44C2F65E070E0780112
:1021C00084E7E80EF11CC7010E9477104C2F6EE0E7
:1021D00070E0C7010E9477100F5F1F4F0A30110592
:1021E00041F657C00A151B0584F44601800E911E66
:1021F0004C2FB701C4010E9477104C2FB201C401CB
:102200000E9477100F5F1F4FEDCF00E010E05801E4
:10221000AE0CBF1C4C2FB501C6010E9477104C2F8D
:10222000B501C1010E9477100F5F1F4F05301105E6
:1022300071F780912B03882361F184E0781229C023
:10224000D63039F507E510E04C2FB701C8010E94E0
:1022500077104C2FB201C8010E9477100F5F1F4FFB
:102260000036110589F700E010E06801CE0CDF1C94
:102270004C2FB60187E590E00E9477104C2FB601F5
:1022800080E690E00E9477100F5F1F4F0530110528
:1022900061F7DF91CF911F910F91FF90EF90DF9049
:1022A000CF90BF90AF909F908F907F905F904F9016
:1022B0003F902F900895EDECF3E049E64083818351
:1022C000292F30E09283638370E067597F4F260F98
:1022D000371F280F311D248365E070E0CF010C9477
:1022E000712B8F929F92AF92BF92CF92DF92EF921B
:1022F000FF920F931F93CF93DF93CDB7DEB72A974B
:102300000FB6F894DEBF0FBECDBFFC01D0801181A7
:1023100083819481892B39F01F3F39F491E00FEFCD
:10232000D01203C003C091E001C090E090FDCBC487
:102330007F0185E0DE01169601900D928A95E1F706
:10234000F70122818E819F81222349F00E94F32888
:10235000082F682F8E819F810E947B2903C00E94D5
:102360004F29082FE12FF0E015E0019FE00DF11D4E
:10237000112464E0EE0FFF1F6A95E1F7ED0DF11DEA
:10238000EE0FFF1FEA52FC4F05911491F701828175
:10239000882329F1C80190568115F0E29F0748F083
:1023A000905E811520E1920720F0915C81159F419C
:1023B00018F4C801992708C00F3F110509F010F45F
:1023C000C80102C080E090E09C0124503109243211
:1023D000310508F464C18B970E9708F460C18091B1
:1023E0000D0181110EC0C80101978E3F910520F0AB
:1023F0000F3E8FEF180728F0F7016281C8010E9495
:102400005B11F7014281608181810E947910F7019F
:102410008281882309F46FC180913A0582720D3C54
:10242000FCE51F0709F4C2C008F045C0073C3CE5C5
:10243000130709F4A7C0D8F4043CECE51E0709F41F
:1024400097C030F4033C2CE5120709F46CC0CEC0F1
:10245000053C3CE5130709F490C0063C9CE51907D0
:1024600009F0C4C04FE658E268E778E2A3C00A3C2E
:10247000ECE51E0709F490C078F4083C2CE512073F
:1024800009F485C0093C3CE5130709F0AFC043E6F9
:1024900058E267E578E28EC00B3C9CE5190709F429
:1024A00080C00C3CECE51E0709F0A0C048E056E2F5
:1024B00069E176E27FC0023DFCE51F0709F486C0B2
:1024C000A0F40F3C3CE5130709F47AC008F475C08A
:1024D000003D9CE5190709F476C0013DECE51E07B7
:1024E00009F084C06EE089E079C0053DFCE51F0776
:1024F00009F472C068F4033D3CE5130709F469C0B0
:10250000043D8CE5180709F071C061E088E16BC0FB
:10251000063D9CE5190709F464C00E35EDE51E077C
:1025200009F4C6C063C08091D50480FF1BC08E7FB4
:102530008093D5046091D5047091D6048091D7041E
:102540009091D8040E94F62510927B07FFEF00E7D8
:1025500012E0F15000401040E1F700C000000E947E
:102560009C25A6C081608093D50461E086953BC020
:1025700042ED58E26BED78E21DC04BED58E262EDA2
:1025800078E218C048E758E26FE678E213C047E502
:1025900058E263E678E20EC04FE358E26BE478E27B
:1025A00009C04BE458E26FE378E204C049E156E227
:1025B00068E076E20E94A31C7BC061E081E013C06A
:1025C00065E082E00BC068E086E008C064E18FE06F
:1025D00005C067E185E102C062E289E10E94911CC9
:1025E00067C061E083E20E94972862C00B352DE549
:1025F000120709F44EC058F401158CE51807C1F014
:102600000F3D1C4509F077C00E94771E51C00C3564
:10261000EDE51E0709F43FC00D351D4509F06BC0FF
:102620008091D00482FB882780F991E0892734C00B
:1026300010923A050E942C2A0FEF14E32CE001506F
:1026400010402040E1F700C0000081E08093E000EE
:1026500080E28093D8001092C9008FE19EE4019738
:10266000F1F700C0000087E090EBDC018093F308F5
:102670009093F408A093F508B093F6089CE088E1E5
:102680000FB6F894A895809360000FBE90936000F9
:10269000FFCF81E001C080E00E94521F2CC0E0917A
:1026A0009603F0E0E556FC4F80818F5F808397CEE4
:1026B00080913205877009F406C3F701828188236F
:1026C00009F401C38091D00482FDFDC282E02A9604
:1026D0000FB6F894DEBF0FBECDBFDF91CF911F9133
:1026E0000F91FF90EF90DF90CF90BF90AF909F90B1
:1026F0008F900C94351FF70182810081118188230E
:1027000049F0C8010E94F328D82E682FC8010E9402
:102710007B2904C0C8010E944F29D82EE12FF0E088
:1027200015E0D19EE00DF11D112434E0EE0FFF1FE6
:102730003A95E1F7E00FF11DEE0FFF1FEA52FC4F53
:10274000859194910E94EE1C8C01982EF701D28005
:10275000A580A2945FE0A522809132058770B9F030
:10276000DD20A9F0812F807F803421F080E2800F6E
:10277000883068F08091D00482FD09C082E00E9418
:10278000351F809132058770CC24C3948111C12CF0
:10279000B12EB2942FE0B2228B2D90E08C309105B7
:1027A00008F051C2FC01EA5AFF4F0C946F2F812FA1
:1027B000807F1F70882311F01295107FDD20B9F003
:1027C000112309F42DC280E2800F883010F091109F
:1027D00006C080913A05182B10933A0505C08091E8
:1027E0003405182B109334050E94EF1E19C2802F58
:1027F0000E94502A112309F426C2005E083078F1A5
:10280000992069F1109580913405182310933405AF
:1028100029C0812F807F1F70803211F01295107FA8
:10282000992021F0F1E09F16D9F149C08091D004A0
:1028300082FF1BC0DD2069F0112339F080913A0539
:10284000182B10933A050E94EF1E80E00E947A2A0E
:10285000FAC180E00E94502A112309F4F4C1812FAB
:102860000E94E81E0E94EF1EEEC1DD2081F08091E3
:102870003505AA2051F001E0A01207C0182B181747
:1028800009F4E1C110933505DEC1812B10C0AA20E7
:1028900021F021E0A21609F4D6C10E94E21E27C051
:1028A000DD2041F035E03A1508F4CDC1812F0E94BA
:1028B000462AC9C184E08A1508F4C5C118C0DD20C4
:1028C00049F0AA2099F3F701858180FFA9C18F7093
:1028D0008583ECCFAA2059F0093309F0B1C1FFEF8D
:1028E00017EE23E0F15010402040E1F7A7C1812FFF
:1028F0000E943F2AA8C1812F86958695837019F082
:10290000813059F0A0C1DD2019F0C801937002C0D8
:1029100080E090E00E94991A9EC1DD2019F0C80164
:10292000937002C080E090E00E94831A94C1812FCE
:10293000837009F069C0D1108AC1902F9295969545
:102940009770990F990F802F8F70882E912CA12C42
:10295000B12C092E04C0880C991CAA1CBB1C0A941B
:10296000D2F704FF12C04FE050E060E070E004C016
:10297000440F551F661F771F9A95D2F7DB01CA01D6
:1029800080959095A095B09503C080E090E0DC0123
:1029900016951695412F4370423019F1C8F40091F5
:1029A00036051091370520913805309139054130B1
:1029B00059F088299929AA29BB29BC01CD01602396
:1029C0007123822393230AC0802A912AA22AB32A40
:1029D000BC01CD01682979298A299B290E94F62901
:1029E00036C188299929AA29BB2900913605109159
:1029F00037052091380530913905BC01CD0160279C
:102A0000712782279327EACFDD2019F0812F81706B
:102A100001C08695882309F41AC1902F9295969546
:102A20009770990F990F802F8F70882E912CA12C61
:102A3000B12C092E04C0880C991CAA1CBB1C0A943A
:102A4000D2F704FF12C04FE050E060E070E004C035
:102A5000440F551F661F771F9A95D2F7DB01CA01F5
:102A600080959095A095B09503C080E090E0DC0142
:102A700016951695412F43704230D9F068F50091B4
:102A8000EB031091EC032091ED033091EE03413004
:102A900059F088299929AA29BB29BC01CD016023B5
:102AA0007123822393231EC0802A912AA22AB32A4B
:102AB00013C088299929AA29BB290091EB031091F9
:102AC000EC032091ED033091EE03BC01CD016027B2
:102AD00071278227932706C0BC01CD016829792977
:102AE0008A299B290E94A629B2C01F70DD2039F0D7
:102AF000812F0E94D529802F0E94462AA8C0802FAE
:102B00000E943F2A812F0E94B029A1C0802F32EF5E
:102B1000931609F443C0391538F090EF991659F01F
:102B2000E1EF9E16B1F177C0F3EF9F16F1F124EFBC
:102B3000921659F170C0DD2019F134E03A1508F40D
:102B400082C01F7181E090E0A0E0B0E0AC01BD0167
:102B500004C0440F551F661F771F1A95D2F7809146
:102B6000EB039091EC03A091ED03B091EE038A0189
:102B70009B01082719272A273B27C901B80129C02B
:102B800025E02A1508F45FC0DCCF8091D00482FFD5
:102B900023C0DD2029F0812F8F7130C0DD20D9F3D3
:102BA000812F8F710E94B0294EC0DD2079F01F71F6
:102BB00081E090E0A0E0B0E0BC01CD0104C0660F70
:102BC000771F881F991F1A95D2F703C060E070E045
:102BD000CB010E94A62937C0DD2099F01F71812FFB
:102BE0000E94D5298091D00482FD07C038E0139F50
:102BF000C0011124836080933205812F0E94D52962
:102C000022C081E00E94351F81E08A15E0F482E055
:102C10000E94351F18C0DD2029F0AA2009F4BBCF7F
:102C2000802F14CEAA2009F4BBCF893349F49FEF3B
:102C3000E7EEF3E09150E040F040E1F700C0000023
:102C4000802F0E94502A88EF8B0D843020F40E9440
:102C5000AF1A0E947010CC20A9F08091320580FD3F
:102C600011C0F70112828595859585950E94D52919
:102C7000C7010E94711180913205859585958595D2
:102C80000E94B02985E0F701DE01119601900D92B6
:102C90008A95E1F789819A810E944F29EA81F0E0C3
:102CA00005E0809FE00DF11D112484E0EE0FFF1F71
:102CB0008A95E1F78981E80FF11DEE0FFF1FEA52B7
:102CC000FC4F859194912A960FB6F894DEBF0FBE03
:102CD000CDBFDF91CF911F910F91FF90EF90DF90CB
:102CE000CF90BF90AF909F908F90089508950895D2
:102CF00080913C0508958093D1047093D304609330
:102D0000D20480915F05843001F582E08093E90070
:102D10008FEF9091E800815095FD06C095ED9A9552
:102D2000F1F700008111F5CF8091E80085FF0DC01B
:102D300040E050E063E070E081ED94E00E94A0226A
:102D40008091E8008E778093E8000895BC0184E0CC
:102D50000C947B16BC0183E00C947B16CF93DF931D
:102D600020910003222339F02091CF0427FF03C0D4
:102D700060E222E002C068E021E02093E9002FEF4A
:102D80003091E800215035FD06C035ED3A95F1F758
:102D900000002111F5CF2091E80025FF1DC0EC01B6
:102DA00080910003811105C040E050E068E070E0D0
:102DB00003C070E040E050E0CE010E94A02280916C
:102DC000E8008E778093E80080E2FE01ADE3B5E095
:102DD00001900D928A95E1F7DF91CF910895EF92DE
:102DE000FF920F931F93CF93DF938C01C1EAD4E03E
:102DF000E12CF12CF8018481F5E0EF16F1041CF4CC
:102E0000882339F002C0811104C09E014091D8048A
:102E100002C09E0140E06091D7048091D6040E94D8
:102E200039268FEFE81AF80A23969AE0E916F1049A
:102E300009F70E949C25F801848190E00196817039
:102E400099278483DF91CF911F910F91FF90EF908D
:102E500008958F929F92AF92BF92CF92DF92EF929E
:102E6000FF920F931F93CF93DF93EC014C81042FBC
:102E700010E09801D8010E947D2F9B01AC010E94B7
:102E8000932F6B017C01E0E2F0E0E01BF10BA5E584
:102E9000B0E09B01AC010E94932F4B015C019F01AC
:102EA000DF010E94752F9B01AC010E949E2F9B01A8
:102EB000AC012C0D3D1D4E1D5F1DC501B4010E94CE
:102EC0000C2D822FF22E99E2921728F093E0299F81
:102ED000900111240DC025E530E0281B3109C901FE
:102EE000880F991F280F391F37FF02C02F5F3F4FF0
:102EF00035952795122F109591EAC92E94E0D92E79
:102F000000E085E5E82EEF1801FD02C08E2D01C01E
:102F10008F2D9601412F6091D7040E9439260F5FB3
:102F200083E0C80ED11C0A3079F70E949C258C8161
:102F3000811102C091E003C0803219F49FEF909399
:102F4000FE029091FE02890F8C83DF91CF911F9139
:102F50000F91FF90EF90DF90CF90BF90AF909F9038
:102F60008F9008950F931F93CF93DF93C1EAD4E01E
:102F7000FE01118210821282339684E0EF3BF80743
:102F8000C1F700E010E080919F04082E000C990B1F
:102F90000817190794F08091FD02082E000C990B78
:102FA0008017910754F09E014091D8046091D70496
:102FB0008091D6040E94392603C0198218821A8291
:102FC0000F5F1F4F23960A301105E9F60E949C25DA
:102FD0008091FC0290919F04980F90939F04209100
:102FE000FD02280F2093FD02121614F499301CF0F4
:102FF00081958093FC02DF91CF911F910F910895ED
:103000000F931F93CF93DF9300D01F92CDB7DEB7FE
:103010008C018091A00481110AC09E012F5F3F4F57
:103020004FEF6FEF0E9439268A818093A004F80148
:103030008481813051F028F0823061F44091A00405
:103040000AC08091A00440E007C06091A00440E065
:1030500080E003C040E080E060E00E94D225F801FB
:10306000848190E0019663E070E00E943C2F8483AD
:103070000F900F900F90DF91CF911F910F910895B6
:103080001F920F920FB60F9211242F933F934F93DD
:103090005F936F937F938F939F93AF93BF93CF93E0
:1030A000DF93EF93FF93C091E900CF708091EC0024
:1030B000D82FD17080FDD0E81092E9008091F00007
:1030C000877F8093F00078940E94CC221092E900D0
:1030D0008091F00088608093F000CD2BCF70C0937A
:1030E000E900FF91EF91DF91CF91BF91AF919F9157
:1030F0008F917F916F915F914F913F912F910F90A1
:103100000FBE0F901F901895E8EDF0E080818E7F44
:1031100080831092E2001092DA001092E100A0EE9B
:10312000B0E08C9181608C9380818F77808319BC13
:10313000A7EDB0E08C918E7F8C9380818F7E808311
:103140001092D40408952091E4003091E50095E6B2
:103150004091EC00842F817040FF23C08091E800F3
:1031600080FD1DC080915F05882399F0853099F01E
:103170008091EB0085FD11C04091E4005091E50085
:103180002417350729F3915011F09A01E1CF84E01B
:10319000089582E0089583E0089581E0089580E035
:1031A00008954091E80042FFDDCF089580916105C8
:1031B00087FF11C08091E80082FD05C080915F0506
:1031C0008111F8CF11C08091E8008B770BC08091FE
:1031D0005F05882349F08091E80080FFF8CF809157
:1031E000E8008E778093E8000895982F973068F56F
:1031F0009093E900981739F07091EC002091ED0060
:103200005091F00003C0242F762F50E021FD02C022
:103210009F5FECCF3091EB003E7F3093EB0030911D
:10322000ED003D7F3093ED003091EB003160309345
:10323000EB007093EC002093ED005093F000209190
:10324000EE0027FDE5CF80E008958F708093E900C0
:1032500081E00895CF92DF92EF92FF920F931F9338
:10326000CF93DF93C8EDD0E088818F7E8883E7ED30
:10327000F0E080818160808384E082BF81E0809380
:10328000D40488818E7F888302EE10E0F8011082DA
:103290001092DA0081EEC82ED12CF60110828881BE
:1032A0008F77888388818068888388818F7D8883F1
:1032B00019BC10925F051092600510925E05109285
:1032C0005D0590EEE92EF12CF70180818B7F8083E4
:1032D00088818160888342E060E080E00E94F51888
:1032E000F60180818E7F8083F801808181608083F8
:1032F000808188608083F70180818E7F80838881D0
:1033000080618883DF91CF911F910F91FF90EF90A3
:10331000DF90CF90089520916705309168052617BA
:10332000370748F06115710539F42091E8002E77D0
:103330002093E80001C0B901FC0120E0611571058E
:1033400079F180915F058823F1F18530F1F1809169
:10335000E80083FD3CC08091E80082FD2EC0809192
:10336000E80080FFEBCF2091F3008091F20090E025
:10337000922B6115710551F08830910538F4219137
:103380002093F100615071090196F3CF21E0089775
:1033900009F020E08091E8008E778093E800CECF9E
:1033A0002111CFCF0AC080915F05882361F085305D
:1033B00061F08091E80083FD0AC08091E80082FFFF
:1033C000F2CF80E0089582E0089583E0089581E0DF
:1033D000089578941F920F920FB60F9211248F9335
:1033E0009F93AF93BF938091CB049091CC04A09115
:1033F000CD04B091CE040196A11DB11D8093CB04E4
:103400009093CC04A093CD04B093CE04BF91AF9120
:103410009F918F910F900FBE0F901F9018959C0158
:103420004FB7F8948091CB049091CC04A091CD0437
:10343000B091CE044FBF821B930B08952FB7F89421
:103440006091CB047091CC048091CD049091CE0416
:103450002FBF08952FB7F8948091CB049091CC049E
:10346000A091CD04B091CE042FBF08951F920F926A
:103470000FB60F9211248F939F93AF93BF938091B8
:10348000CB049091CC04A091CD04B091CE04419690
:10349000A11DB11D8093CB049093CC04A093CD04C7
:1034A000B093CE04BF91AF919F918F910F900FBEBB
:1034B0000F901F901895209100032223C9F02091AE
:1034C000CF0427FF15C0262F2695269526952E3149
:1034D000C8F4FC01E20FF11D677081E090E001C0CB
:1034E000880F6A95EAF780959281892382830895EF
:1034F000FC0106962281621301C012823196E81700
:10350000F907C1F708952091C9043091CA0428171A
:10351000390771F09093CA048093C904E091C704FD
:10352000F091C804309721F00084F185E02D0994D2
:1035300008952091C5043091C6042817390771F009
:103540009093C6048093C504E091C704F091C80429
:10355000309721F00680F781E02D09940895E091DD
:10356000C704F091C804309721F00190F081E02D5C
:10357000099480E008951F920F920FB60F921124C4
:103580002F933F934F935F936F937F938F939F936B
:10359000AF93BF93EF93FF938091E10082FF09C047
:1035A0008091E20082FF05C08091E1008B7F8093D3
:1035B000E1008091DA0080FF2AC08091D80080FF6E
:1035C00026C08091DA008E7F8093DA008091D90046
:1035D00080FF18C080E189BD82E189BD09B400FE89
:1035E000FDCF81E080935F058091D40481110FC0ED
:1035F0000E9484180E942A198091E20084608093BE
:10360000E20005C019BC10925F051092D4048091AD
:10361000E10080FF17C08091E20080FF13C080911D
:10362000E2008E7F8093E2008091E20080618093CF
:10363000E2008091D80080628093D80019BC85E0B8
:1036400080935F058091E10084FF3AC08091E200A1
:1036500084FF36C080E189BD82E189BD09B400FEE6
:10366000FDCF8091D8008F7D8093D8008091E100BC
:103670008F7E8093E1008091E2008F7E8093E20054
:103680008091E20081608093E20080916005882350
:1036900011F084E007C08091E30087FD02C081E063
:1036A00001C083E080935F0510923A050E942C2AA6
:1036B0000E94AF1A0E9470100E94812880915F05BD
:1036C0008091E10083FF27C08091E20083FF23C047
:1036D0008091E100877F8093E10082E080935F0525
:1036E000109260058091E1008E7F8093E1008091CF
:1036F000E2008E7F8093E2008091E20080618093FF
:10370000E20042E060E080E00E94F5188091F00065
:1037100088608093F000FF91EF91BF91AF919F91EE
:103720008F917F916F915F914F913F912F910F906A
:103730000FBE0F901F9018951F93CF93DF9300D06B
:103740001F92CDB7DEB72091C4049091FF022111E2
:1037500002C0892F17C0198221E82A838B83891719
:1037600079F0182F24E630E043E050E0BE016F5FAF
:103770007F4F88E70E94A02C892B11F41093FF0241
:103780008091FF020F900F900F90DF91CF911F91CA
:1037900008958091C4048823F9F00E941E1ADC0168
:1037A000CB01805A9541AF4FBF4F8093BF04909398
:1037B000C004A093C104B093C2048091C3048111DA
:1037C0000BC062E070E084ED93E00E947722892BC9
:1037D00019F481E08093C3048091C3040895EF92AB
:1037E000FF920F931F93CF93DF9320917207309135
:1037F00073072C563540A901460F571F41305240E0
:1038000020F060E072E0621B730BC0916A05D091FA
:103810006B05D901A459BA4FA901620F731F01E0CA
:1038200010E046175707E8F4FA01E21BF30BE80F24
:10383000F91FE491FC91EF1781F0EC93FA01689481
:1038400014F8F695E7951694E1F7780102C0EE0CAE
:10385000FF1CEA95E2F7CE29DF294F5F5F4F1196F3
:10386000E0CFD0936B05C0936A05DF91CF911F9194
:103870000F91FF90EF900895309169058317C8F577
:1038800090E0262F269526952695239F800D911D45
:103890001124811522E0920764F5FC01E459FA4FE6
:1038A0005081677021E030E001C0220F6A95EAF78D
:1038B000442311F0252B02C0209525232517C9F09C
:1038C000208325E0969587952A95E1F721E030E061
:1038D000A90102C0440F551F8A95E2F7CA01209141
:1038E0006A0530916B05822B932B90936B05809327
:1038F0006A0508952091690536E0839FC00111246F
:10390000629F800D911D1124811522E0920714F011
:1039100080E090E084599A4F9093730780937207E8
:1039200008959091D50490FF04C09695981740F0A3
:1039300003C0811105C090E0961710F40C94DB28A9
:1039400061E00C949728882311F0FA0101C0FB0173
:10395000099480E008959091CF0492FF0DC0282F24
:103960002871283019F4877F846006C0282F2471BD
:10397000243011F48B7F886093FF0DC0282F2871AD
:10398000283119F4877E846106C0282F24712431E0
:1039900011F48B7E88612091D00420FF0DC0382F58
:1039A0003871383019F4877F816006C0382F317143
:1039B000313011F48E7F886021FF0DC0282F2871CF
:1039C000283119F4877E816106C0282F21712131A9
:1039D00011F48E7E886194FD877E0895CF93DF93E6
:1039E0008238910569F1B0F48133910509F46FC013
:1039F00048F48932910509F465C08A32910509F4C9
:103A00006BC08AC08533910509F457C0893391058D
:103A1000B9F082C0833E910571F138F4803E910582
:103A2000B1F0823E910511F177C0863E9105B9F162
:103A3000873E9105C9F1843E910509F06DC024C00F
:103A40002091CF0420FD53C021FD51C065C080915D
:103A5000CF0480FD46C08091D00480FF48C0809193
:103A6000CF0484FD3FC183EE90E03EC18091CF043E
:103A700082FF3AC0F4CF8091CF0482FD35C080919F
:103A8000D00480FD34C0EBCF8091D00481FF35C0DD
:103A90008091CF0484FD26C187EE90E025C18091FE
:103AA000CF0483FF27C0F4CF8091CF0483FD22C0D1
:103AB0008091D00481FD21C0EBCF8091CF0485FDA2
:103AC0001FC021C08091CF0485FD1DC019C0809109
:103AD000CF0486FD1BC01DC08091CF0486FD19C098
:103AE00015C089E390E000C182EE90E0FDC080EE59
:103AF00090E0FAC086EE90E0F7C084EE90E0F4C06B
:103B000089E290E0F1C085E390E0EEC08AE290E0C7
:103B1000EBC081E390E0E8C0811532E5930708F03F
:103B200069C0811541E5940728F0982F8827816F97
:103B3000906ADAC0883E910568F5803E910508F0EC
:103B4000D3C0883A9105B8F4853A910548F0855A72
:103B5000E82FF0E0EC5CFC4F808190E09064C4C002
:103B60008130910509F4BBC008F4BCC084309105D4
:103B700008F4B8C0B9C08F3B910508F0B3C0885AAB
:103B8000E82FF0E0EE0FFF1FE95CFC4F8081918190
:103B90009464AAC0811520E59207F0F09C0174E0BE
:103BA000369527957A95E1F7922F9370482F4370B9
:103BB00021E030E002C0220F331F4A95E2F73C6853
:103BC000392B8F70982F9695969540E2949FC0015F
:103BD0001124822B932B88C0811530E4930718F0B1
:103BE0009F70906A81C09C013A9521153F4108F46D
:103BF0007BC078C0EC01C11586E5D807E8F5C11592
:103C000025E5D20748F08C2F0E94AB1C8F7190E005
:103C1000982F8827906268C0C11534E5D30728F033
:103C20009C2F8827846F906A5FC0AE014370552730
:103C30002C2F26952695C115D34578F481E090E088
:103C400002C0880F991F4A95E2F740E2249F900135
:103C50001124822B932B9C6847C081E090E002C026
:103C6000880F991F4A95E2F740E2249F90011124A2
:103C7000822B932B9A6838C0C1152AE5D207F8F435
:103C8000C11539E5D30790F08C2F8F700E94AB1CC3
:103C900094E0D695C7959A95E1F7CF70D0E0DC2FE8
:103CA000CC27D0699E01282BC9011EC0C11548E54B
:103CB000D407C0F09C2F8827806F906A15C0CE0172
:103CC00090568115904270F48D2F8F710E94AB1C1D
:103CD000282F2F71CE0199279062922B05C081E089
:103CE00090E002C080E090E0DF91CF91089569EE0E
:103CF0007EEF80E090E00E94692D60E082E090E03D
:103D00000E944B2D60E083E090E00E944B2D1092CA
:103D1000360510923705109238051092390560E08B
:103D200084E090E00E944B2D60E082E290E00E94EF
:103D30004B2D60E085E090E00E944B2D60E086E036
:103D400090E00E944B2D6FEF87E090E00E944B2D9A
:103D500040E050E0BA0188E090E00E945D2D60E014
:103D60008DE090E00E944B2D40E050E0BA0188E1E8
:103D700090E00E945D2D60E087E190E00E944B2D75
:103D800040E050E0BA018CE190E00E945D2D60E0DF
:103D900070E080E290E00E94692D40E050E0BA01BE
:103DA00088E190E00E945D2D40E050E0BA018FE094
:103DB00090E00E945D2D40E050E0BA0183E190E088
:103DC0000C945D2D80913505811110923505089573
:103DD000809590913A05892380933A0508959091B2
:103DE0003A0580913405892B20913305982F922B29
:103DF0009093DA04809135058823D9F0892B80933C
:103E0000DA0480910003882331F08091CF0487FF8A
:103E100002C08EE101C086E0ECEDF4E090E081505C
:103E200028F021912223D9F39F5FF9CF91110E94AD
:103E3000E21EE091C704F091C8043097A9F0809188
:103E40000003882359F08091CF0487FF07C0809139
:103E5000DA048093DB0486E08093DA040280F38145
:103E6000E02D8AED94E00994089520913205809523
:103E7000822380933205982F977099F430E0482F71
:103E8000082E000C550B2417350759F09091D004DB
:103E900092FD07C08595859585950E94B029109261
:103EA00032050895CF93C091D004C2FB992790F9B1
:103EB000981799F080FBC2F9C093D0046091CF04A9
:103EC00084E090E00E944B2D6C2F82E290E00E94F3
:103ED0004B2D82E0CF910C94351FCF9108958091A6
:103EE000310590910005891719F08F5F8770FBCF1E
:103EF00008950F931F93CF93DF938091FF048295D2
:103F00008F7009F05DC08091FC04882309F458C0CB
:103F100080913105109100056091FA047091FB04C5
:103F2000C091FD04D091FE0491E06F3F09F090E054
:103F3000292F06E0811709F443C0209721F07F3F25
:103F400021F030E003C031E001C0322F90E030FDBD
:103F500034C0089FF001099FF00D1124DF01AF5F0D
:103F6000BA4F11963C911197371327C03C913613E5
:103F700024C012963C91129731111FC013964D9197
:103F80005C9114974C1B5D0B483C5105B0F480913B
:103F9000FF048F7080618093FF04EA5FFA4F808195
:103FA0008F70806180838AEF94E00E947111DF91AD
:103FB000CF911F910F910C946F1F01968770BACF0C
:103FC000DF91CF911F910F910895CF93DF93D82F59
:103FD000C92F0E94F328EC2FF0E095E0899FE00DB7
:103FE000F11D112484E0EE0FFF1F8A95E1F7ED0F1C
:103FF000F11DEE0FFF1FEA52FC4F859194910E9434
:10400000EE1CDF91CF9108959F92AF92BF92CF9215
:10401000DF92EF92FF920F931F93CF93DF93CDB771
:10402000DEB761970FB6F894DEBF0FBECDBF8C012F
:1040300085E0F801DE011D9601900D928A95E1F769
:10404000F801E2809091FA046091FB044091FD0434
:104050005091FE044115510531F06F3F31F481E07C
:104060009F3F19F403C081E001C080E0F82FF17098
:104070009F2E80FD1AC1F80130812181C380D48038
:104080008AEFA82E84E0B82EF090FC04F601E41B21
:10409000F50BFF2009F4C6C08091FF04E83CF10550
:1040A00008F091C0482F407F09F050C0621311C042
:1040B00093130FC0FE2CE1100CC08F7080618093B1
:1040C000FF04C5010E9471118091FF04F8018583EE
:1040D00029C1CD2831F02F3F31F481E03F3F19F461
:1040E00003C081E001C080E080FD03C081E08E2537
:1040F00002C080E090E0F82FF170FF2E80FF1CC01E
:10410000809131054091000556E0841709F4E8C01C
:1041100090E0589FF001599FF00D1124EF5FFA4F86
:104120006181261306C06081631303C06281E612B9
:1041300003C001968770E9CFFE2CEE2009F4F2C08F
:104140008091FF0481608093FF0449C0621306C020
:10415000931304C0E11002C0F80186C0C8010E9498
:10416000002A882351F1EE2041F12091FF04822F93
:1041700082958F7090E0029774F08091FA0490918C
:10418000FB0498878F831986DB86CA862C87CE012D
:1041900007960E94711186E0F801AAEFB4E0019041
:1041A0000D928A95E1F70E94791F0AC06217C9F043
:1041B000C8010E94002A81111EC0C8010E9471110D
:1041C000FF24F394AFC0482F407F81F78AEF94E03B
:1041D0000E94711186E0F50111928A95E9F7F12CA0
:1041E000A1C09313E5CFE110E3CFF8018583C801A7
:1041F0000E94711154C0EE2001F32091FF04822F20
:1042000082958F7090E0029734F28091FA04909139
:10421000FB049A8389831B82DD82CC822E83CE01AC
:104220000196B7CFE83CF105D0F5FE2CEE2029F23F
:10423000621327C0931325C02091FF0420FD18C0EE
:10424000822F82958F70482F50E04115510581F0E3
:10425000F80125834F30510541F08F5F982F9295DB
:10426000907F822F8F70892B8583C8010E947111E6
:1042700086E0F801AAEFB4E001900D928A95E1F78B
:1042800051C0C8010E94002A811185CF8091FF048E
:1042900081608093FF04C8010E94711143C086E0D1
:1042A000F50111928A95E9F73DC0EE2009F485CF1A
:1042B000C8010E94002AF82E882309F47ECF86E0E8
:1042C000F801AAEFB4E001900D928A95E1F7809190
:1042D000FA049091FB040E94E51F0E94791F22C0FE
:1042E0003D872E878D859E850E94E51F292F22956B
:1042F0002F70223028F49F7039F0811105C00BC057
:10430000243028F49F7049F4805E883020F0C80182
:104310000E9471119F2CF92C05C0F8019581907FA6
:1043200099F7F9CF8F2D61960FB6F894DEBF0FBEC7
:10433000CDBFDF91CF911F910F91FF90EF90DF9054
:10434000CF90BF90AF909F900895CF93DF93C0918F
:104350007207D09173078A30B1F420916905CE01BC
:104360008C569540622F70E00E94F82C281B822FFB
:1043700066E00E94222FC82FC15008F48FC080E24F
:104380000E94A521F9CF8D30E9F4CC56D54020917B
:104390006905622F70E0CE010E94F82C281B822F45
:1043A0009E01280F311D2115324018F080E0C0E039
:1043B000D0E0C80FD11DC459DA4FD0937307C09312
:1043C00072076CC096E0FE01ACE6B7E001900D927A
:1043D0009A95E1F7803E30F086E0FE0111928A95D1
:1043E000E9F70BC0F6E08F9FB00111246858784FB1
:1043F00046E050E0CE010E942E2DC0917207D09170
:10440000730746E050E0BE018CE697E00E94B32FB0
:10441000892B49F19E012C563540A90185E056951E
:1044200047958A95E1F781E090E0BC0102C0660FF4
:10443000771F4A95E2F740916A0550916B05462B2C
:10444000572B2B5F3F4F65E0369527956A95E1F72F
:1044500002C0880F991F2A95E2F7842B952B909321
:104460006B0580936A059E0126563540409169058B
:10447000642F70E0C9010E94F82C481B463010F4EC
:10448000240F311D211582E0380710F020E030E0C4
:1044900024593A4F3093730720937207DF91CF91DD
:1044A00008950F931F93CF93DF93EC01FC010190CC
:1044B0000020E9F78F0101501109C017D10720F43E
:1044C00089910E94A521F9CFDF91CF911F910F9182
:1044D0000895CF93DF93EC01FE018491882321F0AE
:1044E0000E94A5212196F8CFDF91CF910895EF92F8
:1044F000FF920F931F93CF93DF93EC017B0164E650
:1045000070E088E70E94EF2B8C01EC0EFD1ECE15AB
:10451000DF0561F017FD0AC0FE01849164E670E0DA
:104520000E94702C8C012196892B89F30E94F42C17
:10453000C801DF91CF911F910F91FF90EF900895E7
:10454000EF92FF920F931F93CF93DF937C018B0128
:104550000E94A318811119C0E70101151105A1F0EE
:104560008091E80085FD0AC08091E8008E778093F5
:10457000E8000E94A318882381F307C089918093E3
:10458000F10001501109E9CF80E0DF91CF911F9137
:104590000F91FF90EF9008951F93CF93DF93CDB7C6
:1045A000DEB7AA970FB6F894DEBF0FBECDBFE1E627
:1045B000F5E089E695E02091F10021938E179F07A1
:1045C000D1F780916205833009F461C030F4813005
:1045D00071F0823009F49DC0B4C08A3009F489C0FA
:1045E0008B3009F46CC0893009F0ABC020C08091D9
:1045F0006105813A09F0A5C08091E800877F80932A
:10460000E8008091650590916605892B21F460E2B0
:104610008DE395E003C060E080E090E070E00E94F0
:104620008B198091E8008B778093E8008AC0809195
:104630006105813209F085C080916505909166051C
:10464000029708F07EC08091E800877F8093E800A1
:104650008091E80082FD05C080915F058111F8CF4F
:1046600070C02091F3008091F20090E0922B0297AD
:1046700031F48091F100813011F0863021F4809185
:10468000F10080933C058091E8008B7756C08091C3
:104690006105813A09F055C08091650590916605E4
:1046A000892B09F04EC08091E800877F8093E80055
:1046B0008091E80080FFFCCF8091000339C0809199
:1046C00061058132F1F58091650590916605892B30
:1046D000C1F58091E800877F8093E8000E94D6189A
:1046E000809163058093000310923A050E942C2A62
:1046F00028C080916105813221F58091E800877F93
:104700008093E8000E94D6188091640580933B0551
:1047100018C080916105813AA1F48091E800877FFB
:104720008093E8008091E80080FFFCCF80913B05FA
:104730008093F1008091E8008E778093E8000E94DA
:10474000D6188091E80083FFCEC1809161059091D9
:104750006205492F50E04A30510508F0C4C1FA0102
:10476000EE59FF4F0C946F2F803821F0823809F0FA
:10477000BAC108C080915D0590915E05992389F0CA
:1047800082600FC0809165058F70873008F0ABC1E3
:104790008093E9008091EB0085FB882780F91092D7
:1047A000E9009091E800977F9093E8008093F100F2
:1047B0001092F10065C1282F2D7F09F094C1882344
:1047C00019F0823061F08FC180916305813009F06A
:1047D0008AC1933009F080E080935E052EC08091FD
:1047E000630581112AC0809165058F702FEF280F16
:1047F000263008F078C18093E9002091EB0020FF7B
:104800001CC0933021F48091EB00806214C0909121
:10481000EB0090619093EB0021E030E0A90102C031
:10482000440F551F8A95E2F74093EA001092EA0080
:104830008091EB0088608093EB001092E9008091FA
:10484000E800877F20C181114EC1109163051F7759
:104850008091E3008078812B8093E3008091E800D1
:10486000877F8093E8000E94D6188091E80080FF3F
:10487000FCCF8091E30080688093E300111102C0B7
:1048800082E001C083E080935F052DC180588230B3
:1048900008F029C180916305909164058C3D53E037
:1048A000950779F583E08A838AE289834FB7F89484
:1048B000DE01139620E03EE051E2E32FF0E050935A
:1048C0005700E49120FF03C0E295EF703F5FEF7067
:1048D0008E2F90E0EA3010F0C79601C0C0968D93FD
:1048E0009D932F5F243149F74FBF8091E800877F68
:1048F0008093E8006AE270E0CE0101960E948B1975
:10490000AEC04091650550916605292F33272330AD
:104910003105A9F068F42130310509F4F3C02230E3
:10492000310509F0E0C08BE390E0E3E0F7E044C03C
:104930002132310521F12232310571F1D4C099279C
:1049400081309105A1F058F0029709F0CCC0E0E564
:10495000F7E0E4918E2F90E0E0E5F7E02AC0E4E78D
:10496000F7E0E4918E2F90E0E4E7F7E022C0E0E684
:10497000F7E0E4918E2F90E0E0E6F7E01AC04115F1
:10498000510509F4C4C04130510509F0ACC089E0BB
:1049900090E0EEE2F7E010C04115510509F4BCC00B
:1049A0004130510509F09FC08DE690E0E6E5F6E064
:1049B00003C0009709F497C02091E800277F209357
:1049C000E80020916705309168058217930708F485
:1049D0009C0140E02115310589F180915F05882314
:1049E00009F43DC08530D9F18091E80083FD37C0DE
:1049F0008091E80082FD2FC08091E80080FFEACF1F
:104A00004091F3008091F20090E0942B2115310544
:104A100059F08830910540F444914093F10031966B
:104A2000215031090196F2CF41E0089709F040E0AA
:104A30008091E8008E778093E800CCCF4111CDCFF4
:104A40000AC080915F05882351F0853041F0809144
:104A5000E80083FD04C08091E80082FFF2CF8091DE
:104A6000E8008B778093E8003EC08038E1F58091C4
:104A7000E800877F8093E800809160058093F100D3
:104A80008091E8008E778093E8000E94D6182BC0B2
:104A9000811129C08091630590916405992702973F
:104AA00014F58091E800877F8093E80010916305FA
:104AB000109360050E94D618111106C08091E30082
:104AC00087FD02C081E001C084E080935F0542E081
:104AD00061EC81E00E94F51842E261EC82E00E9404
:104AE000F51880915F058091E80083FF1AC08091DE
:104AF000E800877F8093E8008091EB0080628093DC
:104B0000EB000FC082E190E0EEE3F7E055CF89E0E3
:104B100090E0E5E1F7E050CF80E490E0E3ECF6E0F0
:104B20004BCFAA960FB6F894DEBF0FBECDBFDF9174
:104B3000CF911F91089508958091D50480FF0AC0F8
:104B40006E9A8EB18F7B9EB190642FB7F894E1EA94
:104B5000F4E00BC0E1EAF4E0118210821282339695
:104B600034E0EF3BF307C1F7EBCF34E0EF3BF30763
:104B700089F0319148E09EB9000000C037FF8EB93E
:104B8000330F000000C000C000C08EB900C04A95BD
:104B900091F7EBCF2FBF8FE594E00197F1F700C0BD
:104BA000000008959091D50490FF0CC0E1EAF4E074
:104BB000818360834283339694E0EF3BF907C1F72A
:104BC0000C949C2508958091D504282F269530E0DB
:104BD0002115310519F48170826005C02532310537
:104BE00024F0817088648093D5040895CF92DF9279
:104BF000EF92FF926B017C010E94E325B701A601B1
:104C000088E090E0FF90EF90DF90CF900C945D2DC6
:104C10008091D904882319F081508093D904609140
:104C2000D5047091D6048091D7049091D8040C9447
:104C3000F6258091D904833018F48F5F8093D904CE
:104C40006091D5047091D6048091D7049091D804D6
:104C50000C94F625E5EDF4E083E0808311828FEF7C
:104C600082838383148260817181828193810C9419
:104C7000F625AF92BF92CF92DF92EF92FF920F9301
:104C80001F93CF93DF93E82EF62EE901E42FF0E097
:104C9000611106C0E854F34FE4914E2F2E2F71C0DE
:104CA000062F10E0E854F34F4491F42FC42ED12C7A
:104CB00026E0829FC00111242FEF30E0B9010E944D
:104CC000F82C5BEA5603C001579F900D11248E0DFE
:104CD000911D8E0D911D582F550F580FD901A01BF6
:104CE000B10BAC9DC001AD9D900DBC9D900D1124EC
:104CF000E92FF59ED0011124AB2FBB277901EA1AC9
:104D0000FB0AEC9CD001ED9CB00DFC9CB00D112475
:104D10005901A51AB108A09E7001A19EF00CB09E89
:104D2000F00C1124EF2CFF242E193F092C9D80013B
:104D30002D9D100D3C9D100D1124212F6230710509
:104D400091F048F461157105E1F061307105B9F435
:104D5000242F4B2F16C06430710569F040F0663087
:104D6000710579F00CC0242F492FE12F0AC0492F7B
:104D7000EF2F2B2F06C0292FE42F412F02C0292F00
:104D8000EB2F49832883EA83DF91CF911F910F9105
:104D9000FF90EF90DF90CF90BF90AF900895CF93AA
:104DA000DF9300D01F92CDB7DEB79091D50490FF6E
:104DB0000AC09E012F5F3F4F0E9439264B816981B7
:104DC0008A810E94D2250F900F900F90DF91CF9192
:104DD0000895CF93DF93EC01E5EDF4E04381628128
:104DE0008C810E94CF268C818F5F8C83DF91CF9145
:104DF0000895CF93DF93EC01EC81F0E0E354F24FA0
:104E00004491E5EDF4E0628181810E94CF268C819E
:104E10008F5F8C83DF91CF910895BF92CF92DF9205
:104E2000EF92FF920F931F93CF93DF93FC01828148
:104E300080FF03C0DD24DA9402C0DD24D39401EAAC
:104E400014E0C0E0D0E02AE0B22EF8011182108216
:104E5000128294E0E92EF12CC12C80917C078C0DFC
:104E60008B302CF06B2D0E942E2F892F02C087FDD6
:104E7000865F082E000C990BC817D90791F4809112
:104E8000D8048E9DA0018F9D500D112455954795F6
:104E90005595479598016091D7048091D6040E945A
:104EA0003926CD0CF1E0EF1AF108B9F621960D5F25
:104EB0001F4FCA30D10549F60E949C2580917C077E
:104EC00091E0D91206C0811102C089E007C081506B
:104ED00005C090E00196BE010E943C2F80937C07A4
:104EE000DF91CF911F910F91FF90EF90DF90CF90C6
:104EF000BF900895EF92FF921F93CF93DF93EC0141
:104F000081EAE82E84E0F82E10E08C819701409130
:104F1000D8046091D704810F0E943926175E83E080
:104F2000E80EF11C1A3F89F70E949C259A818C811A
:104F300090FF02C08F5F01C081508C83DF91CF91C1
:104F40001F91FF90EF9008955F926F927F928F92E2
:104F50009F92AF92BF92CF92DF92EF92FF920F9308
:104F60001F93CF93DF9300D01F92CDB7DEB7182FDA
:104F7000762E042F622E9091D50490FF6DC0E92FFC
:104F8000E695AE2FB0E0AB59BC4F8C9180937A0779
:104F90009E7F923061F49E012F5F3F4F812F0E94D0
:104FA00039264B8169818A810E94D22543C0823093
:104FB00019F40091D8043EC0863019F41091D6043B
:104FC00039C08930D9F38931A9F5E9518E2F817023
:104FD000582EE695F0E0E854F24FA590B49081EA9F
:104FE000C82E84E0D82EE12CF12CBB249AE0892E27
:104FF000912CAE9CC001AF9C900DBE9C900D1124D5
:10500000B4010E94F82C812F511002C0860F01C0FC
:10501000861B9601402F672D0E9439268FEFE81AD4
:10502000F80A83E0C80ED11C8AE0E816F10409F7FB
:105030000E949C251093D6047092D7040093D80444
:10504000662051F06091D5047091D6048091D70408
:105050009091D8040E94F6250F900F900F90DF9149
:10506000CF911F910F91FF90EF90DF90CF90BF9065
:10507000AF909F908F907F906F905F900895E5ED37
:10508000F4E0438121E1421B08F440E021E0628129
:1050900081810C94A427E5EDF4E0438121E1420FE6
:1050A00008F44FEF21E0628181810C94A427E5EDA3
:1050B000F4E0628121E1621B08F460E021E04381B9
:1050C00081810C94A427E5EDF4E0628121E1620F77
:1050D00008F46FEF21E0438181810C94A427E5ED72
:1050E000F4E0818121E04381628188500C94A427FF
:1050F000E5EDF4E0818121E043816281885F0C94D9
:10510000A4276091D504669570E04BE050E081E003
:1051100093E00E94A62F892B19F481E080937B07EE
:105120000E942A1A909375078093740708959091AE
:10513000D50490FF36C09170811102C0926006C004
:10514000853210F0986402C0880F982B9093D50494
:10515000662351F06091D5047091D6048091D704F4
:105160009091D8040E94F6256091D504669570E070
:105170004BE050E081E093E00E94A62F892B19F0CC
:1051800010927B0702C00E94812881E080937707FC
:1051900020E04091D8046091D7048091D6040C940B
:1051A000A42708958091D5048695815009F484E25E
:1051B00061E00C9497288091D50486958F5F8532A5
:1051C00008F081E061E00C94972880E090E00E9474
:1051D000991A80E090E00E94831A10923405109290
:1051E00033050C94EF1E8F929F92AF92BF92DF9285
:1051F000EF92FF920F931F93CF93DF938090EB0377
:105200009090EC03A090ED03B090EE034091360532
:10521000509137056091380570913905842A952A97
:10522000A62AB72ACFE1D0E025E0D22EE92EF12C34
:10523000082F10E0D501C4010C2E04C0B695A79527
:10524000979587950A94D2F780FD04C0219790F72F
:1052500080E019C0DC9EF001DD9EF00D1124EE0D02
:10526000FF1D84E0EE0FFF1F8A95E1F7E00FF11FAD
:10527000EE0FFF1FEA52FC4F859194910E94EE1CA5
:10528000019721F38C2FDF91CF911F910F91FF9008
:10529000EF90DF90BF90AF909F908F90089520E1A6
:1052A000929F800D1124682F669566956695982FBC
:1052B000977085E0689FB001112440E050E080E0E5
:1052C000FB01E40FF51FE358F84F208130E0092E71
:1052D00002C0369527950A94E2F721703327042EF1
:1052E00001C0220F0A94EAF7822B4F5F5F4F4530CF
:1052F000510531F7089520E1929F800D1124E82F88
:10530000E695E695E695877051E001C0550F8A95C0
:10531000EAF785E0E89FF0011124E358F84F20E018
:1053200030E070E04081CB01022E02C09695879557
:105330000A94E2F7817081958427852384278193DD
:105340002F5F3F4F2530310569F708956093EB03D8
:105350007093EC038093ED039093EE030C94E52897
:105360000F931F9341E050E060E070E004C0440FF1
:10537000551F661F771F8A95D2F740955095609507
:1053800070958091EB039091EC03A091ED03B091A7
:10539000EE038A019B01082319232A233B23C90119
:1053A000B8011F910F910C94A6290F931F9341E010
:1053B00050E060E070E004C0440F551F661F771F87
:1053C0008A95D2F78091EB039091EC03A091ED03C5
:1053D000B091EE038A019B01082B192B2A2B3B2B42
:1053E000C901B8011F910F910C94A629609336054D
:1053F0007093370580933805909339050C94E52810
:10540000FC01808191810E94E51F292F2F70E92FD7
:10541000E295EF704E2F50E0FA013297EE30F10531
:10542000B8F4E459FF4F0C946F2F803F99F018F4B3
:10543000883E70F40FC0843F59F40CC0883E50F091
:10544000813F31F407C0822F869586958695089511
:1054500080E0089581E0089580910003882331F071
:105460008091CF0487FF02C08EE101C086E0ECEDA1
:10547000F4E0DF011D928A95E9F70C94E528882372
:1054800021F00E94E81E0C94EF1E0895882339F045
:1054900090913A05892B80933A050C94EF1E08955C
:1054A000882339F1682F8CEF860F813A28F48AED32
:1054B00094E00E945B1A0CC080E2860F883050F4A2
:1054C000677081E001C0880F6A95EAF70E94E81EC4
:1054D0000C94EF1E8BE5860F833020F480E090E083
:1054E0000C94991A685A673120F480E090E00C948B
:1054F000831A0895CF93882309F49DC09CEF980FD9
:10550000913A08F05FC0C82F809100038823E1F032
:105510008091CF0487FF18C0EC2FE695E695E695BD
:10552000F0E0E652FB4F8281282F30E04C2F47708D
:1055300081E090E002C0880F991F4A95E2F782232C
:105540009323892B59F411C0ECEDF4E08191C81735
:1055500029F044E0E23EF407C9F707C06C2F8AED5A
:1055600094E00E945B1A0E94EF1E80910003882342
:10557000C9F08091CF0487FF15C0AC2FA695A695E2
:10558000A695B0E0A652BB4FC77081E090E001C085
:10559000880FCA95EAF712969C911297892B12965A
:1055A0008C9323C0ACEDB4E0EFEF80E09D91C91780
:1055B000E1F0EF3F19F4911101C0E82F8F5F8630C1
:1055C000A9F730C090E2980F983090F4877021E0EE
:1055D00030E0A90102C0440F551F8A95E2F7CA01C5
:1055E00090913A05892B80933A05CF910C94EF1E48
:1055F000EBE5E80FE33040F4F0E0EC5CFC4F808139
:1056000090E0CF910C94991A885A8731A0F4E82F32
:10561000F0E0EE0FFF1FE95CFC4F80819181CF919C
:105620000C94831AEF3F09F30E2E000CFF0BE65289
:10563000FB4FC283DACFCF9108959B01AC01F89460
:1056400060E079E08DE390E00E940C2DDA01C90161
:105650000197A109B109B695A7959795879580936C
:10566000CC0082E08093C80088E98093C90086E07E
:105670008093CA001092F1071092F2071092AF07C0
:105680001092B007789408959091F2079F5F20914F
:10569000F107921303C00FB607FE0EC02091F10769
:1056A0009217E1F3E92FF0E0ED50F84F80839093EB
:1056B000F20788EB8093C90008959091B00780911C
:1056C000AF079817D1F39091AF079F5F903408F020
:1056D00090E0E92FF0E0EF54F84F80819093AF070E
:1056E00008950F931F93CF93DF93EC018C01060F66
:1056F000171FC017D10721F089910E94442BF9CFC1
:10570000DF91CF911F910F9108955091B007409173
:10571000AF07852F90E0242F30E0541710F4805C01
:105720009F4FAC01421B530B81E0141615060CF081
:1057300080E008951F920F920FB60F9211248F935D
:105740009F93EF93FF939091F2078091F107981345
:1057500004C088E98093C9000CC08091F1078F5F75
:10576000E82FF0E0ED50F84F90819093CE008093B9
:10577000F107FF91EF919F918F910F900FBE0F90C6
:105780001F9018951F920F920FB60F9211242F930E
:105790008F939F93EF93FF939091CE008091B007EA
:1057A0008F5F803408F080E02091AF07821739F0D6
:1057B000E82FF0E0EF54F84F90838093B007FF910B
:1057C000EF919F918F912F910F900FBE0F901F908F
:1057D00018951092B9008CE08093B80008959F92BC
:1057E000AF92BF92CF92DF92EF92FF920F931F93EF
:1057F000CF93DF93B82EEB010E942A1A6C01C431BB
:10580000D10558F0CF3F8FEFD80759F0CE0164E1B2
:1058100070E00E94F82C7B0107C0EE24E394F12C89
:1058200003C025E0E22EF12C84E8A82E94EA992EFC
:105830001092BC009092BC000E942A1A8C018091A8
:10584000BC0087FD08C00E942A1A801B910B8E1590
:105850009F05A8F32AC08091B900887F883041F065
:105860008091B900887F803119F00FEF1FEF1FC0C2
:10587000B092BB00A092BC000E942A1A8C018091B9
:10588000BC0087FD08C00E942A1A801B910B8E1550
:105890009F05A8F30AC08091B900887F883111F074
:1058A000803419F700E010E00EC00EEF1FEFCF3F7D
:1058B0008FEFD80709F4BCCFC6010E940F1A8C17CE
:1058C0009D0708F4B5CFC801DF91CF911F910F91CB
:1058D000FF90EF90DF90CF90BF90AF909F90089592
:1058E0000F931F93CF93DF93EB018093BB0084E86A
:1058F0008093BC000E942A1A8C018091BC0087FD15
:105900000EC0CF3F8FEFD807C1F30E942A1A801B29
:10591000910B8C179D0788F38EEF9FEF0CC02091A1
:10592000B900287F81E090E0283211F480E090E017
:10593000919581959109DF91CF911F910F910895D4
:10594000CF92DF92EF92FF920F931F93CF93DF934B
:105950006B018A017901B9010E94EF2BE6010C0D60
:105960001D1DC017D10761F424E92093BC00DF910D
:10597000CF911F910F91FF90EF90DF90CF900895FE
:1059800097FDF2CFB70189910E94702CEACFCF9298
:10599000DF92EF92FF920F931F93CF93DF93C62F67
:1059A0006A017901B8010E94EF2B97FD11C0B8017F
:1059B0008C2F0E94702CE601EC0CFD1CCE15DF052F
:1059C00039F097FD05C0B80189910E94702CF6CF7F
:1059D00024E92093BC00DF91CF911F910F91FF909C
:1059E000EF90DF90CF90089584E98093BC000895F4
:1059F000AA1BBB1B51E107C0AA1FBB1FA617B707F5
:105A000010F0A61BB70B881F991F5A95A9F7809510
:105A10009095BC01CD010895A1E21A2EAA1BBB1BD3
:105A2000FD010DC0AA1FBB1FEE1FFF1FA217B3076A
:105A3000E407F50720F0A21BB30BE40BF50B661F80
:105A4000771F881F991F1A9469F760957095809544
:105A500090959B01AC01BD01CF010895FB01DC01D4
:105A600002C005900D9241505040D8F70895F99921
:105A7000FECF92BD81BDF89A992780B50895A6E121
:105A8000B0E044E050E00C94712DA8E1B0E042E0B9
:105A900050E00C94712D262FF999FECF92BD81BD57
:105AA000F89A019700B4021639F01FBA20BD0FB65C
:105AB000F894FA9AF99A0FBE08950396272F0E9438
:105AC0004C2D0E944B2D252F0E944C2D242F0C94E1
:105AD0004C2D0196272F0E944C2D0C944B2DDC0150
